:020000040800F2
:1000000000000120DD110008E5100008EB100008D9
:10001000F1100008F7100008FD10000800000000B3
:1000200000000000000000000000000003110008B4
:1000300011110008000000001F1100082D11000818
:100040002D1200082D1200082D1200082D12000894
:100050002D1200082D1200082D1200082D12000884
:100060002D1200082D1200082D1200082D12000874
:100070002D1200082D1200082D1200082D12000864
:100080002D1200082D1200082D120008000000009B
:100090000000000000000000000000002D12000819
:1000A0002D1200082D1200082D1200082D12000834
:1000B000391100082D1200082D1200082D12000819
:1000C0002D1200082D1200082D1200082D12000814
:1000D0002D1200082D1200082D120008000000004B
:1000E0002D1200082D1200082D120008000000003B
:1000F0000000000000000000000000002D120008B9
:10010000000000002D1200082D1200082D1200081A
:1001100000000000000000000000000000000000DF
:100120002D1200082D1200082D1200082D120008B3
:100130002D12000800000000000000000000000078
:100140000000000000000000000000002D12000868
:100150002D1200082D1200082D1200082D12000883
:100160002D1200082D120008000000000000000001
:10017000000000000000000000000000000000007F
:10018000000000002D120008000000000000000028
:040190002D12000824
:1001A00010B5054C237833B9044B13B10448AFF3B1
:1001B00000800123237010BDB0000020000000006B
:1001C0000C41000808B5034B1BB103490348AFF3CA
:1001D000008008BD00000000B40000200C410008B1
:1001E000034613F8012B002AFBD1181A0138704777
:1001F00001F0FF01102A2BDB10F0070F08D010F8D8
:10020000013B013A8B422DD010F0070F42B3F6D1DB
:10021000F0B441EA012141EA014122F007047FF0F4
:1002200000070023F0E80256083C85EA010586EA4B
:10023000010685FA47F5A3FA87F586FA47F6A5FA87
:1002400087F68EB9EED1F0BC01F0FF0102F0070293
:1002500032B110F8013B013A83EA010313B1F8D13E
:100260000020704701387047002D06BF354603381F
:10027000073815F0010F07D1013015F4807F02BF58
:10028000013015F4C03F0130F0BC0138704700BFA9
:1002900053B94AB9002908BF00281CBF4FF0FF31ED
:1002A0004FF0FF3000F074B9ADF1080C6DE904CEE9
:1002B00000F006F8DDF804E0DDE9022304B0704741
:1002C0002DE9F047089D04468E46002B4DD18A4209
:1002D000944669D9B2FA82F252B101FA02F3C2F13C
:1002E000200120FA01F10CFA02FC41EA030E9440CD
:1002F0004FEA1C48210CBEFBF8F61FFA8CF708FBEE
:1003000016E341EA034306FB07F199420AD91CEBC5
:10031000030306F1FF3080F01F81994240F21C81F7
:10032000023E63445B1AA4B2B3FBF8F008FB10333F
:1003300044EA034400FB07F7A7420AD91CEB040474
:1003400000F1FF3380F00A81A74240F20781644444
:10035000023840EA0640E41B00261DB1D4400023C9
:10036000C5E900433146BDE8F0878B4209D9002D2D
:1003700000F0EF800026C5E9000130463146BDE8B7
:10038000F087B3FA83F6002E4AD18B4202D3824221
:1003900000F2F980841A61EB030301209E46002DD0
:1003A000E0D0C5E9004EDDE702B9FFDEB2FA82F225
:1003B000002A40F09280A1EB0C014FEA1C471FFA83
:1003C0008CFE0126200CB1FBF7F307FB131140EA6A
:1003D00001410EFB03F0884208D91CEB010103F137
:1003E000FF3802D2884200F2CB804346091AA4B2F9
:1003F000B1FBF7F007FB101144EA01440EFB00FECD
:10040000A64508D91CEB040400F1FF3102D2A64531
:1004100000F2BB800846A4EB0E0440EA03409CE7D0
:10042000C6F12007B34022FA07FC4CEA030C20FA7D
:1004300007F401FA06F31C43F9404FEA1C4900FA9D
:1004400006F3B1FBF9F8200C1FFA8CFE09FB18111A
:1004500040EA014108FB0EF0884202FA06F20BD98D
:100460001CEB010108F1FF3A80F08880884240F2DD
:100470008580A8F102086144091AA4B2B1FBF9F021
:1004800009FB101144EA014100FB0EFE8E4508D91C
:100490001CEB010100F1FF346CD28E456AD90238A1
:1004A000614440EA0840A0FB0294A1EB0E01A14286
:1004B000C846A64656D353D05DB1B3EB080261EBF4
:1004C0000E0101FA07F722FA06F3F1401F43C5E9CE
:1004D000007100263146BDE8F087C2F12003D84004
:1004E0000CFA02FC21FA03F3914001434FEA1C4746
:1004F0001FFA8CFEB3FBF7F007FB10360B0C43EA38
:10050000064300FB0EF69E4204FA02F408D91CEBE7
:10051000030300F1FF382FD29E422DD902386344E5
:100520009B1B89B2B3FBF7F607FB163341EA034185
:1005300006FB0EF38B4208D91CEB010106F1FF38D4
:1005400016D28B4214D9023E6144C91A46EA0046CB
:1005500038E72E46284605E70646E3E61846F8E65D
:100560004B45A9D2B9EB020864EB0C0E0138A3E7A6
:100570004646EAE7204694E74046D1E7D0467BE787
:10058000023B614432E7304609E76444023842E7FF
:10059000704700BFB0B58AB000AFF860B9607A604C
:1005A0003B6097F8443087F82630B7F84030BB847A
:1005B000FB6B3B623B8FBB833B68BB617B687B61B2
:1005C000BB683B6107F11003184600F00EF8FB68AA
:1005D0001D4607F110040FCC0FC594E8030085E811
:1005E0000300F8682837BD46B0BD80B582B000AFC3
:1005F00078607B689B7D002B0CD13321786800F0FC
:100600009AF83221786800F096F82821786800F08E
:1006100092F803E03821786800F08DF801217868BD
:1006200000F089F80C21786800F085F806217868D8
:1006300000F081F800BF0837BD4680BD80B586B0A8
:1006400000AF7860396007F10C033A680649184634
:1006500003F0EEF807F10C031946786800F006F88D
:1006600000BF1837BD4680BD2441000890B585B055
:1006700000AF786039600023FB730AE0FB7B3A68C7
:1006800013441B781946786800F083F8FB7B01332C
:10069000FB73FC7B3868FFF7A3FD03469C42EDD358
:1006A00000BF00BF1437BD4690BD000080B582B0CA
:1006B00000AF78600B46FB701346BB70FB78074AAF
:1006C000D25CBB781344DBB2803BDBB2194678685E
:1006D00000F031F800BF0837BD4680BD304100084A
:1006E00080B586B000AFF8600B467A60FB72FB7A8B
:1006F000DB005BB243F040035BB2DBB21946F86843
:1007000000F019F80023FB750AE0FB7D7A681344BA
:100710001B781946F86800F03CF8FB7D0133FB7547
:10072000FB7D072BF1D90221F86800F004F800BF27
:100730001837BD4680BD80B582B000AF78600B46EB
:10074000FB707B6898687B689B890022194601F0E2
:100750009BF87B689B7D002B11D1FB781B09DBB2DA
:1007600004221946786800F042F8FB7803F00F0382
:10077000DBB204221946786800F039F805E0FB780E
:1007800008221946786800F032F800BF0837BD46E5
:1007900080BD80B582B000AF78600B46FB707B688F
:1007A00098687B689B890122194601F06DF87B6887
:1007B0009B7D002B11D1FB781B09DBB2042219466B
:1007C000786800F014F8FB7803F00F03DBB2042222
:1007D0001946786800F00BF805E0FB780822194606
:1007E000786800F004F800BF0837BD4680BD80B5CA
:1007F00084B000AF78600B46FB701346BB700023DB
:10080000FB7319E07B681A68FB7B9B001344186834
:100810007B685A68FB7B5B0013441988FA78FB7B82
:1008200042FA03F3DBB203F00103DBB21A4601F034
:100830002BF8FB7B0133FB73FA7BBB789A42E1D345
:100840007B6818697B689B8A0122194601F01CF8B5
:10085000012000F05FFD7B6818697B689B8A00229D
:10086000194601F011F800BF1037BD4680BD0000E9
:1008700080B586B000AF78607B681B7F012B47D1C5
:10088000544B1B68002B0AD10021786802F074FADF
:100890000346514A13604F4B01221A6038E0002191
:1008A000786802F069FA03464C4A13604B4B1A68A9
:1008B000494B1B689A4207D9484B1A68464B1B683C
:1008C000D31A474A13600DE0434B1A68434B1B6829
:1008D0009A4207D9414B1A683F4B1B68D31A013B18
:1008E0003F4A13603F4B7B613D4B1B6807EE903ADC
:1008F000B8EE677AD7ED056AC6EE877A3A4BC3ED54
:10090000007A7B681B6800225A62324B00221A6010
:100910007B681B7F022B58D1344B1B68002B0AD1FC
:100920000421786802F028FA0346314A13602F4BFD
:1009300001221A6049E00421786802F01DFA03469A
:100940002C4A13602B4B1A68294B1B689A4207D913
:10095000284B1A68264B1B68D31A274A13600DE0F0
:10096000234B1A68234B1B689A4207D9214B1A68FC
:100970001F4B1B68D31A013B1F4A1360194B3B6185
:10098000DFED1E6A97ED047AC6EE877AC7ED037A2B
:10099000194B1B6807EE903AB8EE677AD7ED037AE9
:1009A00067EE277AFCEEE77A17EE902A144B1A606E
:1009B000134B1B68C3F16303114A13607B681B6808
:1009C00000225A62094B00221A6000BF1837BD4648
:1009D00080BD00BF8001002074010020780100204C
:1009E0007C0100200024744984010020940100202F
:1009F000880100208C01002090010020002474490F
:100A000098010020B0B58CB004AF00F011FC00F0EC
:100A1000D1F800F04BFA00F02DF900F0CBF9564C6C
:100A200038460023039310230293544B0193202351
:100A30000093524B524A5349FFF7ACFD25463C46C2
:100A40000FCC0FC594E8030085E803004E4A00214F
:100A50004948FFF745FE4D4A01214748FFF740FE50
:100A60004B4A02214448FFF73BFE4A4A03214248D1
:100A7000FFF736FE484A04213F48FFF731FE474B57
:100A80005A225A630021464801F024FC00214548BF
:100A900001F02AFD0421434801F026FD0022002137
:100AA0003548FFF703FE40493348FFF7DFFD3F4B72
:100AB000D3ED007AFDEEE77A17EE901A2E48FFF795
:100AC000BDFD002201212C48FFF7F0FD384B1B68CB
:100AD00019462948FFF7B2FD25212748FFF759FE9F
:100AE0000023FB6143E0FB69DBB20333DBB21A4650
:100AF00001212148FFF7DAFD2D4B1B68142B04D888
:100B000000211D48FFF745FE2EE0294B1B68142BE2
:100B100008D9274B1B68282B04D801211648FFF75A
:100B200038FE21E0224B1B68282B08D9204B1B687C
:100B30003C2B04D802211048FFF72BFE14E01C4B7D
:100B40001B683C2B08D91A4B1B68502B04D8032177
:100B50000948FFF71EFE07E0154B1B68502B03D911
:100B600004210548FFF715FEFB690133FB61FB69B2
:100B70000F2BB8DD92E700BF5C01002000040240AB
:100B8000100000200000002018000020200000209D
:100B90002800002030000020380000200000014024
:100BA000CC0000201401002028410008840100200E
:100BB0009801002080B594B000AF07F120033022E7
:100BC0000021184602F02CFE07F10C0300221A60E7
:100BD0005A609A60DA601A610023BB60234B1B6C79
:100BE000224A43F080531364204B1B6C03F0805364
:100BF000BB60BB6800237B601D4B1B6823F4404334
:100C00001B4A43F400431360194B1B6803F4404331
:100C10007B607B6802233B620123FB6210233B6302
:100C20000023BB6307F12003184600F047FE03468C
:100C3000002B01D000F08AF90F23FB6000233B61F9
:100C400000237B610023BB610023FB6107F10C03E0
:100C50000021184601F0AAF80346002B01D000F04D
:100C600075F900BF5037BD4680BD00BF0038024057
:100C70000070004080B596B000AF07F14803002235
:100C80001A605A609A60DA6007F1400300221A6025
:100C90005A6007F1240300221A605A609A60DA60F1
:100CA0001A615A619A613B1D20220021184602F008
:100CB000B7FD3E4B3E4A1A603C4B1F225A603B4BED
:100CC00000229A60394B6322DA60384B00221A61A5
:100CD000364B00225A61354B00229A61334801F0AD
:100CE00051FA0346002B01D000F030F94FF4805345
:100CF000BB6407F1480319462C4801F075FF034611
:100D0000002B01D000F022F9284801F08AFA0346AE
:100D1000002B01D000F01AF900233B6400237B6410
:100D200007F140031946214802F07CFC0346002BE2
:100D300001D000F00BF960237B620023BB6200232B
:100D4000FB6200233B6300237B630023BB63002320
:100D5000FB6307F1240300221946144801F082FEC8
:100D60000346002B01D000F0F1F800237B60002344
:100D7000BB600023FB6000233B6100237B614FF4D9
:100D80000053BB6100233B623B1D1946074802F03C
:100D9000B7FC0346002B01D000F0D8F8034800F060
:100DA00067F900BF5837BD4680BD00BFCC000020AA
:100DB0000000014080B58AB000AF07F1180300229F
:100DC0001A605A609A60DA6007F1100300221A6014
:100DD0005A603B4600221A605A609A60DA60324BD1
:100DE0004FF080421A60304B1F225A602E4B002277
:100DF0009A602D4B4FF0FF32DA602B4B00221A61C4
:100E0000294B00229A61284801F0BCF90346002BC7
:100E100001D000F09BF84FF48053BB6107F1180339
:100E20001946214801F0E0FE0346002B01D000F0F6
:100E30008DF81D4801F0FEFA0346002B01D000F0AA
:100E400085F800233B6100237B6107F110031946FD
:100E5000154802F0E7FB0346002B01D000F076F8BE
:100E600000233B6001237B600023BB600023FB6009
:100E70003B46002219460C4801F058FD0346002B62
:100E800001D000F063F80A233B603B460422194678
:100E9000054801F04BFD0346002B01D000F056F849
:100EA00000BF2837BD4680BD1401002080B588B042
:100EB00000AF07F10C0300221A605A609A60DA60F2
:100EC0001A610023BB601F4B1B6B1E4A43F080035B
:100ED00013631C4B1B6B03F08003BB60BB680023D8
:100EE0007B60184B1B6B174A43F001031363154BD0
:100EF0001B6B03F001037B607B6800233B60114B9D
:100F00001B6B104A43F0020313630E4B1B6B03F081
:100F100002033B603B6800223F210B4800F0B4FC19
:100F20003F23FB6001233B6100237B610023BB6106
:100F300007F10C031946044800F022FB00BF2037DC
:100F4000BD4680BD003802400004024080B400AFBE
:100F500072B600BFFEE7000080B483B000AF00238C
:100F60007B60104B5B6C0F4A43F4804353640D4B22
:100F70005B6C03F480437B607B6800233B60094B20
:100F80001B6C084A43F080531364064B1B6C03F040
:100F900080533B603B6800BF0C37BD465DF8047B67
:100FA000704700BF0038024080B58AB000AF78605B
:100FB00007F1140300221A605A609A60DA601A611D
:100FC0007B681B68274A93420ED100233B61264B66
:100FD0005B6C254A43F001035364234B5B6C03F0C5
:100FE00001033B613B6938E07B681B68B3F1804FCC
:100FF00033D10023FB601C4B1B6C1B4A43F00103E5
:101000001364194B1B6C03F00103FB60FB680023A6
:10101000BB60154B1B6B144A43F001031363124B67
:101020001B6B03F00103BB60BB6803237B610223DE
:10103000BB610023FB6100233B6201237B6207F15C
:1010400014031946094800F09BFA002200211C20D5
:1010500000F05FFA1C2000F078FA00BF2837BD4688
:1010600080BD00BF00000140003802400000024087
:1010700080B588B000AF786007F10C0300221A60D9
:101080005A609A60DA601A617B681B68124A934260
:101090001ED10023BB60114B1B6B104A43F00103B0
:1010A00013630E4B1B6B03F00103BB60BB684FF473
:1010B0008073FB6002233B6100237B610023BB61E3
:1010C0000123FB6107F10C031946054800F058FAAB
:1010D00000BF2037BD4680BD0000014000380240FF
:1010E0000000024080B400AFFEE780B400AFFEE72E
:1010F00080B400AFFEE780B400AFFEE780B400AF7D
:10110000FEE780B400AF00BFBD465DF8047B7047CA
:1011100080B400AF00BFBD465DF8047B704780B46B
:1011200000AF00BFBD465DF8047B704780B500AFDF
:1011300000F0D0F800BF80BD80B500AF024801F0DC
:10114000EDFA00BF80BD00BF1401002080B586B05D
:1011500000AF7860144A154BD31A7B617B693B6101
:10116000134B1B68002B02D1114B124A1A60104B13
:101170001A687B6813443A699A4207D202F026FB48
:1011800003460C221A604FF0FF3309E0084B1B683E
:10119000FB60074B1A687B681344054A1360FB68C1
:1011A00018461837BD4680BD00000120000400002D
:1011B0009C010020B801002080B400AF064BD3F89A
:1011C0008830054A43F47003C2F8883000BFBD463A
:1011D0005DF8047B704700BF00ED00E0DFF834D01D
:1011E0000D480E490E4A002302E0D458C45004337F
:1011F000C4188C42F9D30B4A0B4C002301E0136056
:101200000432A242FBD3FFF7D7FF02F0E5FAFFF763
:10121000F9FB70470000012000000020B000002012
:1012200088410008B0000020B4010020FEE7000063
:1012300080B500AF0E4B1B680D4A43F4007313607A
:101240000B4B1B680A4A43F480631360084B1B680E
:10125000074A43F480731360032000F04FF90F2016
:1012600000F008F8FFF778FE0023184680BD00BFA5
:10127000003C024080B582B000AF7860124B1A6823
:10128000124B1B7819464FF47A73B3FBF1F3B2FBA0
:10129000F3F3184600F067F90346002B01D0012351
:1012A0000EE07B680F2B0AD8002279684FF0FF30E0
:1012B00000F02FF9064A7B681360002300E0012349
:1012C00018460837BD4680BD400000204800002079
:1012D0004400002080B400AF064B1B781A46064B32
:1012E0001B681344044A136000BFBD465DF8047BCD
:1012F000704700BF48000020A001002080B400AF6C
:10130000034B1B681846BD465DF8047B704700BF61
:10131000A001002080B584B000AF7860FFF7EEFF39
:10132000B8607B68FB60FB68B3F1FF3F05D00A4BF8
:101330001B781A46FB681344FB6000BFFFF7DEFF13
:101340000246BB68D31AFA689A42F7D800BF00BFBA
:101350001037BD4680BD00BF4800002080B485B076
:1013600000AF78607B6803F00703FB600C4BDB6821
:10137000BB60BA684FF6FF031340BB60FB681A02FC
:10138000BB68134343F0BF6343F40033BB60044ABC
:10139000BB68D36000BF1437BD465DF8047B70475F
:1013A00000ED00E080B400AF044BDB681B0A03F0E3
:1013B00007031846BD465DF8047B704700ED00E06A
:1013C00080B483B000AF0346FB7197F90730002B60
:1013D0000BDBFB7903F01F02074997F907305B0924
:1013E000012000FA02F241F8232000BF0C37BD466D
:1013F0005DF8047B704700BF00E100E080B483B07B
:1014000000AF03463960FB7197F90730002B0ADB08
:101410003B68DAB20C4997F907301201D2B20B449B
:1014200083F800230AE03B68DAB20849FB7903F04D
:101430000F03043B1201D2B20B441A7600BF0C37E3
:10144000BD465DF8047B704700E100E000ED00E080
:1014500080B489B000AFF860B9607A60FB6803F0CF
:101460000703FB61FB69C3F10703042B28BF0423B7
:10147000BB61FB690433062B02D9FB69033B00E027
:1014800000237B614FF0FF32BB6902FA03F3DA43BA
:10149000BB681A407B699A404FF0FF317B6901FAC3
:1014A00003F3D9437B680B40134318462437BD46EA
:1014B0005DF8047B7047000080B582B000AF7860B3
:1014C0007B68013BB3F1807F01D301230FE00A4A1F
:1014D0007B68013B53600F214FF0FF30FFF78EFF19
:1014E000054B00229A60044B07221A60002318461D
:1014F0000837BD4680BD00BF10E000E080B582B077
:1015000000AF78607868FFF729FF00BF0837BD4655
:1015100080BD80B586B000AF0346B9607A60FB73CA
:1015200000237B61FFF73EFF78617A68B9687869CC
:10153000FFF78EFF024697F90F3011461846FFF766
:101540005DFF00BF1837BD4680BD80B582B000AFDB
:101550000346FB7197F907301846FFF731FF00BFCC
:101560000837BD4680BD80B582B000AF786078682E
:10157000FFF7A2FF034618460837BD4680BD0000AE
:1015800080B489B000AF7860396000237B610023AC
:101590003B610023BB610023FB6159E10122FB6930
:1015A00002FA03F37B613B681B687A6913403B6175
:1015B0003A697B699A4240F048813B685B6803F076
:1015C0000303012B05D03B685B6803F00303022B88
:1015D00030D17B689B68BB61FB695B00032202FA28
:1015E00003F3DB43BA691340BB613B68DA68FB690C
:1015F0005B0002FA03F3BA691343BB617B68BA6903
:101600009A607B685B68BB610122FB6902FA03F3A5
:10161000DB43BA691340BB613B685B681B0903F09D
:101620000102FB6902FA03F3BA691343BB617B68E9
:10163000BA695A603B685B6803F00303032B17D059
:101640007B68DB68BB61FB695B00032202FA03F382
:10165000DB43BA691340BB613B689A68FB695B0076
:1016600002FA03F3BA691343BB617B68BA69DA60B3
:101670003B685B6803F00303022B23D1FB69DA08A4
:101680007B68083253F82230BB61FB6903F0070323
:101690009B000F2202FA03F3DB43BA691340BB61DC
:1016A0003B681A69FB6903F007039B0002FA03F326
:1016B000BA691343BB61FB69DA087B680832B96910
:1016C00043F822107B681B68BB61FB695B00032247
:1016D00002FA03F3DB43BA691340BB613B685B6802
:1016E00003F00302FB695B0002FA03F3BA691343D8
:1016F000BB617B68BA691A603B685B6803F440337E
:10170000002B00F0A2800023FB60574B5B6C564A15
:1017100043F480435364544B5B6C03F48043FB609D
:10172000FB68524AFB699B08023352F82330BB61C5
:10173000FB6903F003039B000F2202FA03F3DB4370
:10174000BA691340BB617B68494A934219D07B68F0
:10175000484A934213D07B68474A93420DD07B6836
:10176000464A934207D07B68454A934201D10423FD
:1017700008E0072306E0032304E0022302E001233C
:1017800000E00023FA6902F0030292009340BA6974
:101790001343BB613549FB699B080233BA6941F8C1
:1017A0002320384B9B68BB613B69DB43BA6913401C
:1017B000BB613B685B6803F48013002B03D0BA69FC
:1017C0003B691343BB612F4ABB6993602D4BDB68B8
:1017D000BB613B69DB43BA691340BB613B685B6833
:1017E00003F40013002B03D0BA693B691343BB61B8
:1017F000244ABB69D360234B5B68BB613B69DB4315
:10180000BA691340BB613B685B6803F40033002B8B
:1018100003D0BA693B691343BB611A4ABB69536081
:10182000184B1B68BB613B69DB43BA691340BB6162
:101830003B685B6803F48033002B03D0BA693B69D3
:101840001343BB610F4ABB691360FB690133FB6142
:10185000FB690F2B7FF6A2AE00BF00BF2437BD4649
:101860005DF8047B704700BF00380240003801403B
:10187000000002400004024000080240000C024048
:1018800000100240003C014080B483B000AF78609B
:101890000B467B8013467B707B78002B03D07A88C5
:1018A0007B689A6103E07B881A047B689A6100BFB9
:1018B0000C37BD465DF8047B7047000080B586B0EC
:1018C00000AF78607B68002B01D1012367E27B6861
:1018D0001B6803F00103002B75D0884B9B6803F055
:1018E0000C03042B0CD0854B9B6803F00C03082BD6
:1018F00012D1824B5B6803F48003B3F5800F0BD1E8
:101900007E4B1B6803F40033002B5BD07B685B6865
:10191000002B57D1012342E27B685B68B3F5803F1F
:1019200006D1764B1B68754A43F4803313601DE083
:101930007B685B68B3F5A02F0CD1704B1B686F4AB6
:1019400043F4802313606D4B1B686C4A43F480336F
:1019500013600BE0694B1B68684A23F48033136003
:10196000664B1B68654A23F4802313607B685B68C1
:10197000002B13D0FFF7C2FC386108E0FFF7BEFC74
:1019800002463B69D31A642B01D9032307E25B4B60
:101990001B6803F40033002BF0D014E0FFF7AEFC1B
:1019A000386108E0FFF7AAFC02463B69D31A642BB2
:1019B00001D90323F3E1514B1B6803F40033002BDF
:1019C000F0D100E000BF7B681B6803F00203002B2E
:1019D00063D04A4B9B6803F00C03002B0BD0474BA2
:1019E0009B6803F00C03082B1CD1444B5B6803F489
:1019F0008003002B16D1414B1B6803F00203002B20
:101A000005D07B68DB68012B01D00123C7E13B4B8C
:101A10001B6823F0F8027B681B69DB00374913431E
:101A20000B603AE07B68DB68002B20D0344B01224E
:101A30001A60FFF763FC386108E0FFF75FFC0246BD
:101A40003B69D31A022B01D90323A8E12B4B1B6856
:101A500003F00203002BF0D0284B1B6823F0F802A0
:101A60007B681B69DB00254913430B6015E0244BA1
:101A700000221A60FFF742FC386108E0FFF73EFCE5
:101A800002463B69D31A022B01D9032387E11B4B82
:101A90001B6803F00203002BF0D17B681B6803F086
:101AA0000803002B36D07B685B69002B16D0154BE2
:101AB00001221A60FFF722FC386108E0FFF71EFCE4
:101AC00002463B69D31A022B01D9032367E10B4B72
:101AD0005B6F03F00203002BF0D01BE0094B0022E8
:101AE0001A60FFF70BFC38610EE0FFF707FC0246B7
:101AF0003B69D31A022B07D9032350E10038024077
:101B000000004742800E4742884B5B6F03F00203A0
:101B1000002BEAD17B681B6803F00403002B00F064
:101B200097800023FB75814B1B6C03F08053002BC7
:101B30000FD10023BB607D4B1B6C7C4A43F080536C
:101B400013647A4B1B6C03F08053BB60BB680123AA
:101B5000FB75774B1B6803F48073002B18D1744B13
:101B60001B68734A43F480731360FFF7C7FB386147
:101B700008E0FFF7C3FB02463B69D31A022B01D9E9
:101B800003230CE16A4B1B6803F48073002BF0D035
:101B90007B689B68012B06D1644B1B6F634A43F043
:101BA000010313671CE07B689B68052B0CD15F4B1E
:101BB0001B6F5E4A43F0040313675C4B1B6F5B4A69
:101BC00043F0010313670BE0584B1B6F574A23F098
:101BD00001031367554B1B6F544A23F0040313672B
:101BE0007B689B68002B15D0FFF788FB38610AE003
:101BF000FFF784FB02463B69D31A41F288329342D5
:101C000001D90323CBE0494B1B6F03F00203002BE8
:101C1000EED014E0FFF772FB38610AE0FFF76EFBCD
:101C200002463B69D31A41F28832934201D9032319
:101C3000B5E03E4B1B6F03F00203002BEED1FB7DA2
:101C4000012B05D1394B1B6C384A23F080531364A8
:101C50007B689B69002B00F0A180344B9B6803F0EC
:101C60000C03082B5CD07B689B69022B41D1314B64
:101C700000221A60FFF742FB386108E0FFF73EFBE5
:101C800002463B69D31A022B01D9032387E0274B75
:101C90001B6803F00073002BF0D17B68DA697B6866
:101CA0001B6A1A437B685B6A9B011A437B689B6AC9
:101CB0005B08013B1B041A437B68DB6A1B061B495C
:101CC00013434B601B4B01221A60FFF717FB38616F
:101CD00008E0FFF713FB02463B69D31A022B01D938
:101CE00003235CE0114B1B6803F00073002BF0D062
:101CF00054E0104B00221A60FFF700FB386108E047
:101D0000FFF7FCFA02463B69D31A022B01D90323E1
:101D100045E0064B1B6803F00073002BF0D13DE05B
:101D20007B689B69012B07D1012338E00038024012
:101D300000700040600047421B4B5B68FB607B68A3
:101D40009B69012B28D0FB6803F480027B68DB6968
:101D50009A4221D1FB6803F03F027B681B6A9A42DA
:101D60001AD1FA6847F6C07313407A68526A920132
:101D7000934211D1FB6803F440327B689B6A5B0895
:101D8000013B1B049A4207D1FB6803F070627B6839
:101D9000DB6A1B069A4201D0012300E000231846AB
:101DA0001837BD4680BD00BF0038024080B584B002
:101DB00000AF786039607B68002B01D10123CCE053
:101DC000684B1B6803F007033A689A420CD9654BCD
:101DD0003A68D2B21A70634B1B6803F007033A6883
:101DE0009A4201D00123B8E07B681B6803F002032C
:101DF000002B20D07B681B6803F00403002B05D068
:101E0000594B9B68584A43F4E05393607B681B68C6
:101E100003F00803002B05D0534B9B68524A43F450
:101E200060439360504B9B6823F0F0027B689B6893
:101E30004D4913438B607B681B6803F00103002B43
:101E400044D07B685B68012B07D1474B1B6803F4C8
:101E50000033002B19D101237FE07B685B68022BE4
:101E600003D07B685B68032B07D13F4B1B6803F0F3
:101E70000073002B09D101236FE03B4B1B6803F07B
:101E80000203002B01D1012367E0374B9B6823F04D
:101E900003027B685B68344913438B60FFF72EFABB
:101EA000F8600AE0FFF72AFA0246FB68D31A41F20B
:101EB0008832934201D903234FE02B4B9B6803F0F8
:101EC0000C027B685B689B009A42EBD1254B1B6838
:101ED00003F007033A689A420CD2224B3A68D2B216
:101EE0001A70204B1B6803F007033A689A4201D02E
:101EF000012332E07B681B6803F00403002B08D049
:101F0000194B9B6823F4E0527B68DB681649134346
:101F10008B607B681B6803F00803002B09D0124B11
:101F20009B6823F460427B681B69DB000E49134306
:101F30008B6000F021F802460B4B9B681B0903F0F5
:101F40000F030A49CB5C22FA03F3094A1360094BD9
:101F50001B681846FFF78EF9002318461037BD4658
:101F600080BD00BF003C0240003802403441000800
:101F700040000020440000202DE9B04F94B000AF95
:101F800000237B640023FB6400233B640023BB64C9
:101F9000794B9B6803F00C03082B0DD0082B00F243
:101FA000E180002B02D0042B03D0DBE0734BBB6439
:101FB000DBE0734BBB64D8E06F4B5B6803F03F031F
:101FC0007B646D4B5B6803F48003002B63D06A4B2A
:101FD0005B689B090022BB63FA63BB6BC3F3080316
:101FE0003B6300237B63D7E90C4522462B464FF029
:101FF00000004FF00001590141EAD2615001024650
:102000000B462146511A3961294663EB01037B6176
:102010004FF000024FF00003D7E904AB59468B01A3
:10202000514643EA916351468A015146B2EB010899
:10203000594663EB01094FF000024FF000034FEAED
:10204000C90343EA58734FEAC802904699462346AB
:1020500018EB0303BB602B4649EB0303FB604FF017
:1020600000024FF00003D7E9024529464B02214602
:1020700043EAD15321464A02104619467B6C00229E
:10208000BB62FA62D7E90A23FEF702F902460B4661
:102090001346FB6458E0384B5B689B0900221846E6
:1020A0001146C0F308033B6200237B62D7E908892D
:1020B00042464B464FF000004FF00001590141EA03
:1020C000D261500102460B464146B2EB010A494635
:1020D00063EB010B4FF000024FF000034FEA8B134C
:1020E00043EA9A634FEA8A12B2EB0A0463EB0B05E8
:1020F0004FF000024FF00003EB0043EA5473E2009C
:1021000014461D464346E3183B604B4645EB03032C
:102110007B604FF000024FF00003D7E900452946ED
:102120008B02214643EA915321468A021046194602
:102130007B6C0022BB61FA61D7E90623FEF7A8F8A1
:1021400002460B461346FB640B4B5B681B0C03F00B
:10215000030301335B003B64FA6C3B6CB2FBF3F3AB
:10216000BB6402E0054BBB6400BFBB6C1846503734
:10217000BD46BDE8B08F00BF003802400024F40027
:1021800000127A0080B582B000AF78607B68002BC7
:1021900001D1012341E07B6893F83D30DBB2002B95
:1021A00006D17B68002283F83C207868FEF7FCFEAD
:1021B0007B68022283F83D207B681A687B680433C1
:1021C0001946104600F044FE7B68012283F8462041
:1021D0007B68012283F83E207B68012283F83F2040
:1021E0007B68012283F840207B68012283F841202C
:1021F0007B68012283F842207B68012283F8432018
:102200007B68012283F844207B68012283F8452003
:102210007B68012283F83D20002318460837BD461D
:1022200080BD80B582B000AF78607B68002B01D1A3
:10223000012341E07B6893F83D30DBB2002B06D1EF
:102240007B68002283F83C20786800F039F87B68CE
:10225000022283F83D207B681A687B6804331946A4
:10226000104600F0F5FD7B68012283F846207B686C
:10227000012283F83E207B68012283F83F207B689F
:10228000012283F840207B68012283F841207B688B
:10229000012283F842207B68012283F843207B6877
:1022A000012283F844207B68012283F845207B6863
:1022B000012283F83D20002318460837BD4680BD23
:1022C00080B483B000AF786000BF0C37BD465DF8C6
:1022D000047B704780B584B000AF786039603B689C
:1022E000002B09D17B6893F83E30DBB2012B14BF81
:1022F00001230023DBB222E03B68042B09D17B6879
:1023000093F83F30DBB2012B14BF01230023DBB273
:1023100015E03B68082B09D17B6893F84030DBB2AD
:10232000012B14BF01230023DBB208E07B6893F884
:102330004130DBB2012B14BF01230023DBB2002BA1
:1023400001D0012368E03B68002B04D17B680222A6
:1023500083F83E2013E03B68042B04D17B68022203
:1023600083F83F200BE03B68082B04D17B680222F6
:1023700083F8402003E07B68022283F841207B68D9
:102380001B6801223968184601F026F97B681B6832
:10239000234A934207D17B681B685A6C7B681B6891
:1023A00042F400425A647B681B681D4A934218D06D
:1023B0007B681B68B3F1804F13D07B681B68194A98
:1023C00093420ED07B681B68174A934209D07B6802
:1023D0001B68164A934204D07B681B68144A9342D8
:1023E00011D17B681B689B6803F00703FB60FB68E7
:1023F000062B10D07B681B681A687B681B6842F04C
:1024000001021A6007E07B681B681A687B681B681A
:1024100042F001021A60002318461037BD4680BD05
:10242000000001400004004000080040000C004093
:102430000040014080B582B000AF78607B68002B1F
:1024400001D1012341E07B6893F83D30DBB2002BE2
:1024500006D17B68002283F83C20786800F039F8C8
:102460007B68022283F83D207B681A687B6804330E
:102470001946104600F0ECFC7B68012283F84620E8
:102480007B68012283F83E207B68012283F83F208D
:102490007B68012283F840207B68012283F8412079
:1024A0007B68012283F842207B68012283F8432065
:1024B0007B68012283F844207B68012283F8452051
:1024C0007B68012283F83D20002318460837BD466B
:1024D00080BD80B483B000AF786000BF0C37BD46CC
:1024E0005DF8047B7047000080B584B000AF786071
:1024F00039600023FB733B68002B04D17B6893F8A1
:102500003E30DBB213E03B68042B04D17B6893F8C8
:102510003F30DBB20BE03B68082B04D17B6893F8BB
:102520004030DBB203E07B6893F84130DBB2BB7331
:102530003B68002B04D17B6893F84230DBB213E098
:102540003B68042B04D17B6893F84330DBB20BE08B
:102550003B68082B04D17B6893F84430DBB203E07E
:102560007B6893F84530DBB27B73BB7B012B02D1D8
:102570007B7B012B01D00123C2E03B68002B04D1FF
:102580007B68022283F83E2013E03B68042B04D1D1
:102590007B68022283F83F200BE03B68082B04D1C4
:1025A0007B68022283F8402003E07B68022283F8E4
:1025B00041203B68002B04D17B68022283F8422033
:1025C00013E03B68042B04D17B68022283F843208C
:1025D0000BE03B68082B04D17B68022283F844207F
:1025E00003E07B68022283F845203B680C2B41D82E
:1025F00001A252F823F000BF2D260008752600081E
:1026000075260008752600083F2600087526000874
:102610007526000875260008512600087526000852
:102620007526000875260008632600087B681B686D
:10263000DA687B681B6842F00202DA601DE07B68A2
:102640001B68DA687B681B6842F00402DA6014E0F9
:102650007B681B68DA687B681B6842F00802DA60F6
:102660000BE07B681B68DA687B681B6842F010022D
:10267000DA6002E00123FB7300BFFB7B002B3ED13D
:102680007B681B6801223968184600F0A5FF7B684B
:102690001B681D4A934218D07B681B68B3F1804FBA
:1026A00013D07B681B68194A93420ED07B681B6865
:1026B000174A934209D07B681B68164A934204D09C
:1026C0007B681B68144A934211D17B681B689B6826
:1026D00003F00703BB60BB68062B10D07B681B6848
:1026E0001A687B681B6842F001021A6007E07B6889
:1026F0001B681A687B681B6842F001021A60FB7B4A
:1027000018461037BD4680BD00000140000400405F
:1027100000080040000C00400040014080B582B03D
:1027200000AF78607B681B681B6903F00203022B13
:1027300022D17B681B68DB6803F00203022B1BD1EC
:102740007B681B686FF002021A617B6801221A77AE
:102750007B681B689B6903F00303002B03D0786838
:10276000FEF786F805E0786800F054FB786800F022
:102770005BFB7B6800221A777B681B681B6903F090
:102780000403042B22D17B681B68DB6803F004037D
:10279000042B1BD17B681B686FF004021A617B68F5
:1027A00002221A777B681B689B6903F44073002B35
:1027B00003D07868FEF75CF805E0786800F02AFB43
:1027C000786800F031FB7B6800221A777B681B6811
:1027D0001B6903F00803082B22D17B681B68DB68A8
:1027E00003F00803082B1BD17B681B686FF00802FD
:1027F0001A617B6804221A777B681B68DB6903F027
:102800000303002B03D07868FEF732F805E0786800
:1028100000F000FB786800F007FB7B6800221A7765
:102820007B681B681B6903F01003102B22D17B68A7
:102830001B68DB6803F01003102B1BD17B681B683F
:102840006FF010021A617B6808221A777B681B6898
:10285000DB6903F44073002B03D07868FEF708F8B7
:1028600005E0786800F0D6FA786800F0DDFA7B6859
:1028700000221A777B681B681B6903F00103012B98
:102880000ED17B681B68DB6803F00103012B07D1C5
:102890007B681B686FF001021A61786800F0B0FA7B
:1028A0007B681B681B6903F08003802B0ED17B685B
:1028B0001B68DB6803F08003802B07D17B681B68F3
:1028C0006FF080021A61786800F076FF7B681B6801
:1028D0001B6903F04003402B0ED17B681B68DB684B
:1028E00003F04003402B07D17B681B686FF0400268
:1028F0001A61786800F0A2FA7B681B681B6903F014
:102900002003202B0ED17B681B68DB6803F02003BB
:10291000202B07D17B681B686FF020021A61786852
:1029200000F040FF00BF0837BD4680BD80B586B0CF
:1029300000AFF860B9607A600023FB75FB6893F81C
:102940003C30012B01D1022388E0FB68012283F88F
:102950003C207B68002B1BD1FB681868BB6819689A
:10296000BB685A68BB68DB6800F07EFCFB681B68CC
:102970009A69FB681B6822F00C029A61FB681B686D
:102980009969BB689A68FB681B680A439A6160E0B2
:102990007B68042B1CD1FB681868BB681968BB688E
:1029A0005A68BB68DB6800F0F6FCFB681B689A6934
:1029B000FB681B6822F440629A61FB681B68996996
:1029C000BB689B681A02FB681B680A439A6140E077
:1029D0007B68082B1BD1FB681868BB681968BB684B
:1029E0005A68BB68DB6800F043FDFB681B68DA6966
:1029F000FB681B6822F00C02DA61FB681B68D9696E
:102A0000BB689A68FB681B680A43DA6121E07B684F
:102A10000C2B1CD1FB681868BB681968BB685A6826
:102A2000BB68DB6800F060FDFB681B68DA69FB6867
:102A30001B6822F44062DA61FB681B68D969BB68D5
:102A40009B681A02FB681B680A43DA6101E00123F4
:102A5000FB75FB68002283F83C20FB7D1846183785
:102A6000BD4680BD80B586B000AFF860B9607A60C1
:102A70000023FB75FB6893F83C30012B01D1022346
:102A8000AEE0FB68012283F83C207B680C2B00F24F
:102A90009F8001A252F823F0CD2A0008D12B000814
:102AA000D12B0008D12B00080D2B0008D12B0008DA
:102AB000D12B0008D12B00084F2B0008D12B000888
:102AC000D12B0008D12B00088F2B0008FB681B6856
:102AD000B968184600F03CFAFB681B689A69FB6805
:102AE0001B6842F008029A61FB681B689A69FB68E0
:102AF0001B6822F004029A61FB681B689969BB6835
:102B00001A69FB681B680A439A6164E0FB681B68EA
:102B1000B968184600F082FAFB681B689A69FB687E
:102B20001B6842F400629A61FB681B689A69FB6843
:102B30001B6822F480629A61FB681B689969BB6814
:102B40001B691A02FB681B680A439A6143E0FB6831
:102B50001B68B968184600F0CDFAFB681B68DA6993
:102B6000FB681B6842F00802DA61FB681B68DA69DF
:102B7000FB681B6822F00402DA61FB681B68D969F4
:102B8000BB681A69FB681B680A43DA6123E0FB68CB
:102B90001B68B968184600F017FBFB681B68DA6908
:102BA000FB681B6842F40062DA61FB681B68DA6943
:102BB000FB681B6822F48062DA61FB681B68D969D4
:102BC000BB681B691A02FB681B680A43DA6102E0F2
:102BD0000123FB7500BFFB68002283F83C20FB7DCE
:102BE00018461837BD4680BD80B584B000AF786008
:102BF00039600023FB737B6893F83C30012B01D1D3
:102C00000223B4E07B68012283F83C207B68022227
:102C100083F83D207B681B689B68BB60BB6823F022
:102C20007703BB60BB6823F47F43BB607B681B6892
:102C3000BA689A603B681B68B3F5005F3ED0B3F595
:102C4000005F00F28780B3F5805F00F08680B3F507
:102C5000805F7FD8702B1AD0702B7BD8602B50D020
:102C6000602B77D8502B3CD0502B73D8402B58D0AA
:102C7000402B6FD8302B64D0302B6BD8202B60D0FA
:102C8000202B67D8002B5CD0102B5AD062E07B68D9
:102C900018683B6899683B685A683B68DB6800F0D5
:102CA0007BFC7B681B689B68BB60BB6843F0770359
:102CB000BB607B681B68BA689A604FE07B681868E5
:102CC0003B6899683B685A683B68DB6800F064FCC5
:102CD0007B681B689A687B681B6842F480429A6034
:102CE0003CE07B6818683B6859683B68DB681A46BB
:102CF00000F022FB7B681B685021184600F031FC75
:102D00002CE07B6818683B6859683B68DB681A46AA
:102D100000F07EFB7B681B686021184600F021FCF8
:102D20001CE07B6818683B6859683B68DB681A469A
:102D300000F002FB7B681B684021184600F011FC84
:102D40000CE07B681A683B681B681946104600F067
:102D500008FC03E00123FB7300E000BF7B68012255
:102D600083F83D207B68002283F83C20FB7B1846DB
:102D70001037BD4680BD000080B485B000AF7860DC
:102D800039600023FB603B680C2B31D801A252F85C
:102D900023F000BFC92D0008F12D0008F12D000817
:102DA000F12D0008D32D0008F12D0008F12D0008A9
:102DB000F12D0008DD2D0008F12D0008F12D00088F
:102DC000F12D0008E72D00087B681B685B6BFB603A
:102DD0000FE07B681B689B6BFB600AE07B681B68ED
:102DE000DB6BFB6005E07B681B681B6CFB6000E035
:102DF00000BFFB6818461437BD465DF8047B70477A
:102E000080B483B000AF786000BF0C37BD465DF87A
:102E1000047B704780B483B000AF786000BF0C378C
:102E2000BD465DF8047B704780B483B000AF786026
:102E300000BF0C37BD465DF8047B704780B483B09B
:102E400000AF786000BF0C37BD465DF8047B70476B
:102E500080B485B000AF786039607B681B68FB6028
:102E60007B68344A93420FD07B68B3F1804F0BD01C
:102E70007B68314A934207D07B68304A934203D043
:102E80007B682F4A934208D1FB6823F07003FB60F4
:102E90003B685B68FA681343FB607B68254A934292
:102EA0001BD07B68B3F1804F17D07B68224A9342D6
:102EB00013D07B68214A93420FD07B68204A93420B
:102EC0000BD07B681F4A934207D07B681E4A93420F
:102ED00003D07B681D4A934208D1FB6823F44073FA
:102EE000FB603B68DB68FA681343FB60FB6823F018
:102EF00080023B685B691343FB607B68FA681A6079
:102F00003B689A687B68DA623B681A687B689A62F9
:102F10007B68084A934203D13B681A697B681A634D
:102F20007B6801225A6100BF1437BD465DF8047BFF
:102F3000704700BF0000014000040040000800404E
:102F4000000C0040004001400044014000480140A6
:102F500080B487B000AF786039607B681B6A23F06B
:102F600001027B681A627B681B6A7B617B685B6815
:102F70003B617B689B69FB60FB6823F07003FB602F
:102F8000FB6823F00303FB603B681B68FA6813438C
:102F9000FB607B6923F002037B613B689B687A6975
:102FA00013437B617B681C4A93420CD17B6923F0FD
:102FB00008037B613B68DB687A6913437B617B694B
:102FC00023F004037B617B68134A934211D13B6970
:102FD00023F480733B613B6923F400733B613B68DE
:102FE0005B693A6913433B613B689B693A691343E8
:102FF0003B617B683A695A607B68FA689A613B6812
:103000005A687B685A637B687A691A6200BF1C370A
:10301000BD465DF8047B70470000014080B487B076
:1030200000AF786039607B681B6A23F010027B6810
:103030001A627B681B6A7B617B685B683B617B68AB
:103040009B69FB60FB6823F4E043FB60FB6823F4AF
:103050004073FB603B681B681B02FA681343FB600C
:103060007B6923F020037B613B689B681B017A69C5
:1030700013437B617B681E4A93420DD17B6923F029
:1030800080037B613B68DB681B017A6913437B61CA
:103090007B6923F040037B617B68154A934213D11F
:1030A0003B6923F480633B613B6923F400633B612C
:1030B0003B685B699B003A6913433B613B689B69D2
:1030C0009B003A6913433B617B683A695A607B68AD
:1030D000FA689A613B685A687B689A637B687A6988
:1030E0001A6200BF1C37BD465DF8047B704700BF05
:1030F0000000014080B487B000AF786039607B6821
:103100001B6A23F480727B681A627B681B6A7B618E
:103110007B685B683B617B68DB69FB60FB6823F075
:103120007003FB60FB6823F00303FB603B681B68D4
:10313000FA681343FB607B6923F400737B613B688F
:103140009B681B027A6913437B617B681D4A93422B
:103150000DD17B6923F400637B613B68DB681B0254
:103160007A6913437B617B6923F480637B617B68AD
:10317000144A934213D13B6923F480533B613B696A
:1031800023F400533B613B685B691B013A691343BD
:103190003B613B689B691B013A6913433B617B6858
:1031A0003A695A607B68FA68DA613B685A687B68FA
:1031B000DA637B687A691A6200BF1C37BD465DF826
:1031C000047B70470000014080B487B000AF786096
:1031D00039607B681B6A23F480527B681A627B68C3
:1031E0001B6A3B617B685B687B617B68DB69FB60BA
:1031F000FB6823F4E043FB60FB6823F44073FB604F
:103200003B681B681B02FA681343FB603B6923F4AD
:1032100000533B613B689B681B033A6913433B6166
:103220007B68104A934209D17B6923F480437B6118
:103230003B685B699B017A6913437B617B687A69B0
:103240005A607B68FA68DA613B685A687B681A647E
:103250007B683A691A6200BF1C37BD465DF8047B83
:10326000704700BF0000014080B487B000AFF86035
:10327000B9607A603B60FB681B6A23F00102FB685F
:103280001A62FB689B697B61FB681B6A3B61FB6898
:10329000244A934213D0FB68B3F1804F0FD0FB68F0
:1032A000214A93420BD0FB68204A934207D0FB6827
:1032B0001F4A934203D0FB681E4A934201D1012367
:1032C00000E00023002B08D07B6923F003037B611F
:1032D0007A697B6813437B6103E07B6943F00103F8
:1032E0007B617B6923F0F0037B613B681B01DBB2F0
:1032F0007A6913437B613B6923F00A033B61BB6836
:1033000003F00A033A6913433B61FB687A699A61E7
:10331000FB683A691A6200BF1C37BD465DF8047B42
:10332000704700BF0000014000040040000800405A
:10333000000C00400040014080B487B000AFF8604E
:10334000B9607A60FB681B6A7B61FB681B6A23F0CB
:103350000102FB681A62FB689B693B613B6923F0D1
:10336000F0033B617B681B013A6913433B617B6956
:1033700023F00A037B617A69BB6813437B61FB68B6
:103380003A699A61FB687A691A6200BF1C37BD46C8
:103390005DF8047B704780B487B000AFF860B96017
:1033A0007A603B60FB681B6A23F01002FB681A62BC
:1033B000FB689B697B61FB681B6A3B617B6923F44B
:1033C00040737B617B681B027A6913437B617B6975
:1033D00023F470437B613B681B039BB27A69134300
:1033E0007B613B6923F0A0033B61BB681B0103F0D9
:1033F000A0033A6913433B61FB687A699A61FB68F1
:103400003A691A6200BF1C37BD465DF8047B7047FD
:1034100080B487B000AFF860B9607A60FB681B6A5F
:1034200023F01002FB681A62FB689B697B61FB68F2
:103430001B6A3B617B6923F470437B617B681B03E0
:103440007A6913437B613B6923F0A0033B61BB684E
:103450001B013A6913433B61FB687A699A61FB6817
:103460003A691A6200BF1C37BD465DF8047B70479D
:1034700080B487B000AFF860B9607A603B60FB68E9
:103480001B6A23F48072FB681A62FB68DB697B614C
:10349000FB681B6A3B617B6923F003037B617A69EC
:1034A0007B6813437B617B6923F0F0037B613B689E
:1034B0001B01DBB27A6913437B613B6923F4206310
:1034C0003B61BB681B0203F420633A6913433B6111
:1034D000FB687A69DA61FB683A691A6200BF1C37D7
:1034E000BD465DF8047B704780B487B000AFF860DC
:1034F000B9607A603B60FB681B6A23F48052FB680A
:103500001A62FB68DB697B61FB681B6A3B617B6954
:1035100023F440737B617B681B027A6913437B61F0
:103520007B6923F470437B613B681B039BB27A6920
:1035300013437B613B6923F420433B61BB681B035E
:1035400003F420433A6913433B61FB687A69DA610B
:10355000FB683A691A6200BF1C37BD465DF8047B00
:10356000704780B485B000AF786039607B689B6835
:10357000FB60FB6823F07003FB603A68FB68134351
:1035800043F00703FB607B68FA689A6000BF14375A
:10359000BD465DF8047B704780B487B000AFF8602B
:1035A000B9607A603B60FB689B687B617B6923F450
:1035B0007F437B613B681A027B681A43BB681343F5
:1035C0007A6913437B61FB687A699A6000BF1C3794
:1035D000BD465DF8047B704780B487B000AFF860EB
:1035E000B9607A60BB6803F01F03012202FA03F39B
:1035F0007B61FB681A6A7B69DB431A40FB681A62CD
:10360000FB681A6ABB6803F01F03796801FA03F3C9
:103610001A43FB681A6200BF1C37BD465DF8047B85
:103620007047000080B485B000AF786039607B6877
:1036300093F83C30012B01D1022350E07B6801223A
:1036400083F83C207B68022283F83D207B681B685E
:103650005B68FB607B681B689B68BB60FB6823F052
:103660007003FB603B681B68FA681343FB607B6870
:103670001B68FA685A607B681B681C4A934218D022
:103680007B681B68B3F1804F13D07B681B68184AB6
:1036900093420ED07B681B68164A934209D07B6820
:1036A0001B68154A934204D07B681B68134A9342F7
:1036B0000CD1BB6823F08003BB603B685B68BA68D1
:1036C0001343BB607B681B68BA689A607B68012201
:1036D00083F83D207B68002283F83C2000231846B5
:1036E0001437BD465DF8047B704700BF0000014001
:1036F0000004004000080040000C00400040014071
:1037000080B485B000AF786039600023FB607B68CF
:1037100093F83C30012B01D102233DE07B6801226C
:1037200083F83C20FB6823F0FF023B68DB6813430F
:10373000FB60FB6823F440723B689B681343FB60AB
:10374000FB6823F480623B685B681343FB60FB68A3
:1037500023F400623B681B681343FB60FB6823F49F
:1037600080523B681B691343FB60FB6823F40052E3
:103770003B685B691343FB60FB6823F480423B6852
:10378000DB691343FB607B681B68FA685A647B68DB
:10379000002283F83C20002318461437BD465DF80C
:1037A000047B704780B483B000AF786000BF0C37F3
:1037B000BD465DF8047B704780B483B000AF78608D
:1037C00000BF0C37BD465DF8047B7047014B18689D
:1037D000704700BF4C00002070B50D4D0D4C641BB0
:1037E000A4100026A64209D10B4D0C4C00F08EFC13
:1037F000641BA4100026A64205D170BD55F8043BF9
:1038000098470136EEE755F8043B98470136F2E752
:103810008041000880410008804100088441000880
:1038200002440346934200D1704703F8011BF9E7B5
:103830000EB400B59CB01DAB029006906FF0004135
:10384000094807910491094953F8042B0591006830
:10385000019302A900F068F8029B00221A701CB0C4
:103860005DF804EB03B070474C0000200802FFFF36
:103870002DE9F0478E689E4282460C4690461F46D0
:1038800038D88A8912F4906F32D025680969A5EB7F
:103890000109656905EB450505EBD57501334B4419
:1038A0006D109D4238BF1D46530531D5294600F0A5
:1038B00063FB064650B90C23CAF80030A38943F0D5
:1038C0004003A3814FF0FF30BDE8F08721694A46ED
:1038D00000F0BEFAA38923F4906343F08003A38130
:1038E000266165614E44A5EB09052660A5603E464C
:1038F000BE4200D93E4620683246414600F0B6FA44
:10390000A3689B1BA3602368334423600020DBE78C
:103910002A4600F0A5FB06460028E1D12169504661
:1039200000F0BEFAC7E700002DE9F04F98468B89FA
:103930001B069DB007460D4614460ED50B6963B9AC
:10394000402100F019FB2860286120B90C233B605E
:103950004FF0FF30D1E040236B6100230993202317
:103960008DF82930CDF80C803023DFF8A8818DF850
:103970002A304FF0010923469A4613F8012B0AB169
:10398000252AF9D1BAEB040B0BD05B462246294617
:103990003846FFF76DFF013000F0AA80099A5A44BB
:1039A00009929AF80030002B00F0A28000234FF01B
:1039B000FF32CDE905230AF1010A049307938DF83C
:1039C00053301A935446052214F8011B5148FCF752
:1039D0000FFC049AD8B9D00644BF20238DF8533089
:1039E000110744BF2B238DF853309AF800302A2B4F
:1039F00015D0079A544600204FF00A0C214611F8C2
:103A0000013B303B092B4ED9B0B1079214E0A0EB3B
:103A1000080309FA03F313430493A246D2E7039B76
:103A2000191D1B680391002BBBBF5B4242F00202D1
:103A300007930793B8BF049223782E2B0CD1637899
:103A40002A2B35D1039B1A1D1B680392002BB8BF8C
:103A50004FF0FF3302340593DFF8C8A0217803222A
:103A60005046FCF7C5FB40B14023A0EB0A0003FA27
:103A700000F0049B03430134049314F8011B26480F
:103A80008DF828100622FCF7B3FB002838D0234B12
:103A90001BBB039B073323F0070308330393099BE6
:103AA0003344099367E70CFB02320C460120A5E77B
:103AB00000230134059319464FF00A0C204610F8F4
:103AC000012B303A092A03D9002BC5D00591C3E751
:103AD0000CFB012104460123F0E703AB00932A46C7
:103AE0000F4B04A93846AFF30080421C0646D6D1DE
:103AF000AB895B063FF52CAF09981DB0BDE8F08F90
:103B000003AB00932A46064B04A9384600F07AF826
:103B1000EBE700BF444100084E41000800000000F0
:103B2000713800084A4100082DE9F04716469946C9
:103B30008A680B69DDF820809342B8BF1346336072
:103B400091F8432007460C460AB1013333602368DD
:103B5000990642BF336802333360256815F00605C5
:103B600006D104F1190AE36832689B1AAB4226DCDD
:103B700094F84320131E226818BF012392062BD409
:103B800004F1430249463846C04701301ED023683D
:103B9000E568326803F00603042B08BFAD1AA3687A
:103BA00022690CBF25EAE57500259342C4BF9B1A24
:103BB000ED1800261A34B5421AD1002008E001237E
:103BC000524649463846C047013003D14FF0FF30D6
:103BD000BDE8F0870135C6E7E1185A1C302081F8AE
:103BE0004300224494F8451082F843100233C7E79B
:103BF0000123224649463846C0470130E6D0013607
:103C0000D9E700002DE9FF470F7E0C9D782F9146E4
:103C100080460C469A4601F1430207D8622F0AD823
:103C2000002F00F0D880582F00F0A38004F1420547
:103C300084F842703AE0A7F16303152BF6D801A18E
:103C400051F823F09D3C0008B13C00082D3C0008D1
:103C50002D3C00082D3C00082D3C0008B13C00081C
:103C60002D3C00082D3C00082D3C00082D3C000890
:103C7000BD3D0008E13C00089F3D00082D3C0008C8
:103C80002D3C0008DF3D00082D3C0008E13C000809
:103C90002D3C00082D3C0008A73D00082B681A1D8C
:103CA0001B682A6004F1420584F842300123A3E036
:103CB00020682968060601F104030AD50E682B6006
:103CC000002E03DA2D23764284F843305E480A231F
:103CD00019E00E682B6010F0400F18BF36B2EFE706
:103CE0002B682068191D2960010601D51E6802E0B5
:103CF0004606FBD51E8854486F2F0CBF08230A23A5
:103D0000002184F843106568A560002DA2BF2168DA
:103D100021F0040121600EB9002D4DD01546B6FBEF
:103D2000F3F103FB1167C75D05F8017D3746BB4220
:103D30000E46F4D9082B0BD12368DE0708D523697A
:103D400061689942DEBF302305F8013C05F1FF357B
:103D5000521B2261CDF800A04B4603AA21464046E3
:103D6000FFF7E2FE01304CD14FF0FF3004B0BDE868
:103D7000F087354881F845702968236851F8046B4D
:103D800029601D0614D5DF0744BF43F020032360DC
:103D90001EB9236823F0200323601023B0E72368B3
:103DA00043F0200323607823284884F84530E3E774
:103DB000590648BFB6B2E6E71546BBE72B6826684A
:103DC0006169181D286035061B6801D5196002E07D
:103DD0007006FBD51980002323611546BAE72B68CE
:103DE0001A1D2A601D68626800212846FCF700FA47
:103DF00008B1401B606063682361002384F843308E
:103E0000A8E723692A4649464046D0470130ABD04F
:103E100023689B0713D4E068039B9842B8BF1846F9
:103E2000A4E70123324649464046D04701309BD0A3
:103E30000135E36803995B1AAB42F2DCEBE700253E
:103E400004F11906F5E700BF554100086641000876
:103E50000A44914200F1FF3300D1704710B511F8C8
:103E6000014B03F8014F9142F9D110BD884210B5C2
:103E700001EB020402D98442234607D8431EA14223
:103E800008D011F8012B03F8012FF8E7024401468E
:103E90008A4200D110BD13F8014D02F8014DF7E739
:103EA00037B5002944D051F8043C0190002BA1F112
:103EB0000404B8BFE41800F013F91E4A019813680F
:103EC00033B96360146003B0BDE8304000F00EB950
:103ED000A34208D9256861198B4201BF19685B6844
:103EE00049192160EDE71A465B680BB1A342FAD984
:103EF00011685518A5420BD1246821445418A342D7
:103F00001160E0D11C685B68536021441160DAE7FE
:103F100002D90C230360D6E7256861198B4204BFE0
:103F200019685B68636004BF491921605460CAE77F
:103F300003B030BDA401002070B50E4E0C463168B0
:103F4000054611B900F0BCF830602146284600F063
:103F5000B7F8431C0AD0C41C24F00304A04207D0C5
:103F6000211A284600F0ACF8013001D14FF0FF349F
:103F7000204670BDA80100202DE9F041CD1C25F0A0
:103F8000030508350C2D38BF0C25002D074601DB35
:103F9000A94205D90C233B6000263046BDE8F081DC
:103FA0002E4E00F09DF833681C4634BB2946384637
:103FB000FFF7C2FF431C04464DD134682646002E4D
:103FC00040D123683146384604EB030800F078F806
:103FD00080453AD1216803356D1A25F0030508356F
:103FE0000C2D38BF0C2529463846FFF7A5FF0130B8
:103FF0002BD023682B4423600EE02268521B1ED472
:104000000B2A16D96119A342256018BF596063684D
:1040100008BF316062514B60384604F10B0600F076
:1040200065F826F00706231DF21AB6D09B1BA35095
:10403000B3E76268A3420CBF32605A60ECE72346E4
:104040006468B2E734467668B9E70C233B603846CB
:1040500000F04CF8A1E72560DEE700BFA4010020D6
:104060002DE9F041804614460E4621B9BDE8F041E5
:104070001146FFF781BF2AB9FFF712FF25462846F0
:10408000BDE8F08100F038F88442074602D8B4EB6E
:10409000500F12D821464046FFF76EFF0546002814
:1040A000EDD0BC422246314628BF3A46FFF7D0FE4B
:1040B00031464046FFF7F4FEE1E73546DFE7000012
:1040C00038B5064D0023044608462B60FDF73EF840
:1040D000431C02D12B6803B1236038BDAC01002022
:1040E000014800F011B800BFB0010020014800F005
:1040F0000CB800BFB001002051F8043C181F002B81
:10410000BCBF0B58C018704770477047F8B500BF68
:10411000F8BC08BC9E467047F8B500BFF8BC08BCA8
:044120009E46704700
:1041240025640000667265713D0000000040105077
:104134000000000000000000010203040607080953
:10414400232D302B2000686C4C006566674546477C
:1041540000303132333435363738394142434445FF
:10416400460030313233343536373839616263646E
:04417400656600007C
:0841780048C1FF7F01000000B7
:04418000C50100086D
:04418400A10100088D
:10418800000402400004024000040240000402400F
:1041980008000400020001001010101010101F0089
:1041A8001808080808080F001C0404040404070081
:1041B8001E020202020203001F00000000000000AD
:1041C8000024F4001000000001000000500000204E
:1041D80000000000000000000000000000000000D7
:1041E80000000000000000000000000000000000C7
:1041F80000000000000000000000000000000000B7
:1042080000000000000000000000000000000000A6
:104218000000000000000000000000000000000096
:104228000000000000000000000000000000000086
:04000005080011DD01
:00000001FF
